:1020000000800020652E00004D2E00004D2E0000A7
:1020100000000000000000000000000000000000C0
:102020000000000000000000000000004D2E000035
:1020300000000000000000004D2E0000B92E00003E
:102040004D2E00004D2E00004D2E00004D2E0000A4
:10205000A12F00004D2E00004D2E0000512E00003B
:102060004D2E0000053700004D2E00004D2E0000C3
:102070004D2E00004D2E0000153700004D2E0000A3
:102080004D2E00004D2E00004D2E00004D2E000064
:10209000F92300004D2E00004D2E00004D2E0000B3
:1020A0004D2E00004D2E00004D2E00004D2E000044
:1020B0000000000010B5064C2378002B07D1054B1B
:1020C000002B02D0044800E000BF0123237010BDA4
:1020D0002001002000000000A474000008B5084B97
:1020E000002B03D00748084900E000BF07480368F9
:1020F000002B03D0064B002B00D0984708BDC046EC
:1021000000000000A474000024010020140100203D
:1021100000000000C16002617047000038B50E4B3E
:1021200082681B68051C934212DD0C4B40681968DD
:1021300002F0CEFD02F072FFE968041C02F068FEB6
:10214000002805D1201C296902F076FE002800D065
:10215000034C201C38BDC046F8010020FC010020C3
:10216000000080BF134B03221A60134B0A221A602F
:10217000124A1E238360002313700121104A494232
:102180001160104A7F2113600F4A11600F4A1360DB
:102190000F4A13600F4A13600F4A13600F4A13600F
:1021A0000F4A13600F4A13600F4BC3600F4B03615C
:1021B0007047C04600020020F00100201C020020F1
:1021C000F401002040010020080200204801002006
:1021D000040200203C010020140200201002002014
:1021E00018020020F8010020000070420080BB446B
:1021F00010B5041CFFF7B6FF201C10BD044B0221D4
:102200001A788A431A705A7ED209FCD17047C046A8
:1022100000400042044B02211A780A431A705A7E89
:10222000D209FCD17047C0460040004238B503686F
:10223000041C0D2B01DC0E3303602068182343437C
:102240000B4D0821EB18595600F044FE094B5A7EFD
:10225000D209FBD1226818214A431869AD18297C9C
:102260001F2290431140021C0A431A6138BDC04628
:10227000906F00000040004210B50F4B30219A884B
:102280000A439A80597E0C4AC909FBD194880B49AC
:10229000214080246400214391805A7ED209FCD1E0
:1022A0005A7ED209FCD1044A1F21D1705A7ED2092C
:1022B000FCD1FFF7BBFF10BD00400042FFF8FFFF5D
:1022C000044B02211A880A431A80DA7B52B2002A90
:1022D000FBDB704700340042054B01221A80DA7B99
:1022E00052B2002AFBDB1A88D107FCD47047C046E3
:1022F00000340042F8B5214A214B061C5A805A7816
:10230000D209FCD11F4C301CFFF7E6FF23882022A6
:102310009BB2238023881343238023880222134304
:102320002380194B71681F68381C02F0D1FC0138FA
:1023300080B22083E37B134D5BB2002BFADB298B49
:10234000381C013102F0C4FC104980225203706035
:102350000F4BCA67C02149005A50C52189005858FF
:10236000FF26B04358501A606B7B102213436B73E7
:10237000E37B5BB2002BFBDBF8BDC0461C400000DA
:10238000000C0040003400420C00002004E100E09A
:1023900000E100E010B501604260041C081C01F07F
:1023A00071F8201CFFF72AFF201CFFF765FF201C97
:1023B000FFF730FF201CFFF79DFF201CFFF780FF79
:1023C00010BD00000B4B5A7ED209FBD11A7B0221B3
:1023D0000A431A731A7ED107FCD5064A508BC0B245
:1023E000597E044AC909FBD1137B02218B43137325
:1023F0007047C04600400042F0B55A4C5A4B256821
:1024000085B01D60FFF7DEFF20600290574C7E2DE7
:1024100072DC7E2870DD564A5649431B13600868FB
:10242000554A15681A1AD717D219AC467A40AA42EB
:102430004EDA524822680168514F0091514E89008E
:10244000CA510392009A8B5100212160051C8A42D7
:1024500004D14D4B1A60012303604DE003983F689F
:102460003F1A4A48FA170068BF185740874223DAD4
:102470003768F81AC2178018504060451CDA01917D
:102480000198009A904209DA019F3D48BF00C25965
:10249000019F9446013701976144F1E73C4A33605C
:1024A000116001233B4A039F35482B60364B116076
:1024B000002207601A601FE0009A0132132A01DC33
:1024C0002A6019E0304A002313602B60294A07E094
:1024D0002D4A834206DD0B6000231360274A2360E8
:1024E000136009E0136801331360132B04DD2348E4
:1024F0000023036013600B60274B186800280ADD77
:10250000029B013BDBB2FD2B05D9012100F000FB52
:10251000224B01221A702368124D01332360204B95
:102520002A681968181C013119607F239B1A002B37
:1025300001DC131C7F3B1B4A13601B4A1468A34237
:1025400000DD1360194B994205D91768184B00211B
:1025500001601F601160174B10219A7B0A439A7328
:1025600005B0F0BD40010020080200204801002015
:102570000C0200203C010020000200200402002088
:10258000A00100204C01002014020020F0010020D6
:1025900044010020FC010020F40100201C02002066
:1025A000100200209C01002018020020E703000018
:1025B000F801002000340042002070470A4B1B68DD
:1025C00098420ED1094B0A4A19781278914208D0E4
:1025D0001A780849885C1A783F2101320A401A703B
:1025E00001E0012040427047200200202402002028
:1025F0006502002025020020F7B5051C408D0E1C49
:10260000002802D101236B604AE02B1C2C331B787D
:10261000EF699B07F943DB0F2C6A0091019301D00E
:10262000F643F6B26B7C802252029A401D4B120C8C
:102630009A60019A2368002A01D03B4301E0009987
:102640000B40236030235843032102F041FB031C5D
:10265000013BFDD10823F20702D522683A4302E08C
:10266000226800990A402260021C013AFDD1013B18
:10267000DBB27608002BEED1019A2368002A03D042
:1026800000990B40236001E01F4327606A7C802390
:102690005B029340034A1B0CD3600138FDD101203B
:1026A000FEBDC04600180040084B1B68984209D187
:1026B000074B084A19781278914203D01B78064AD2
:1026C000D05C01E0012040427047C046200200205B
:1026D0002402002065020020250200200A4B021C73
:1026E0001B6800209A420DD1084B1878084B4030E7
:1026F0001B78C01A074B184004D5402301385B42B1
:10270000184301307047C0462002002065020020B7
:10271000240200203F0000800A4B10B51B6898423D
:102720000FD1417C0122131C8B4099B2064B074C00
:10273000996000212170064C2170417C8A4092B240
:10274000DA6010BD20020020001800406502002061
:1027500024020020084910B50A680023824208D1EB
:10276000547C0122101CA04084B2044884600B6099
:10277000131C181C10BDC046200200200018004089
:10278000F0B5FA25AD00002485600B4D44608484CB
:10279000C48404854485041C2C34083527780560DE
:1027A00001252B405E003B1CAB430225AB4333436A
:1027B000237041740274F0BDC86E000010B5044B64
:1027C000041C08330360FFF7C5FF201C10BDC04682
:1027D000C86E000038B5051C0C1C081C124902F01C
:1027E0002BFB00280BD0201C104902F011FB002805
:1027F00005D00F480221002D12D1042110E0201C29
:102800000C4902F019FB00280DD0201C0A4902F0E7
:10281000FFFA002807D006480121002D00D103212E
:102820000A2200F040FA38BD0000AF430000E14347
:10283000880200200080544400806D4473B51B481A
:10284000FFF76CFC1A4B1B4D2860186800F090F9DC
:10285000194C1A4B2060186800F08AF9184B261C96
:1028600018602368174C012B04D100280AD1201CC2
:10287000154905E0002B05D1012803D11349201C7F
:1028800000F0C2F930682968FFF7A4FF201C104946
:1028900000F0A8F9286804F0B9F90B1C0221021C09
:1028A0000091201C00F0C4FA73BDC04670020020E5
:1028B000080000206C0200206802002004000020B4
:1028C000B80200204C030020F06E0000126F0000E0
:1028D000356F000008B5FFF7B1FF08BD10B5084817
:1028E000FFF786FC074C0023201C0C210D22FFF76C
:1028F00047FF201C0449054A04F0F8F910BDC04602
:102900007002002088020020BD2700000000002087
:10291000E12110B50D48490200F062FB0C4B00218B
:10292000186800F09BF80B4B0021186800F096F82F
:10293000094C0A49201C0A4AFFF7ECFB094B201CF2
:102940001968094AFFF726FD10BDC0464C03002058
:1029500004000020080000207002002000008C42CB
:102960000080BB4484020020C8AF0000314BFA2134
:10297000186810B5890002F0ABF92F4B0138984266
:1029800024D82E4A2E4B5060186AC0210002000A3B
:102990000906014319620024072194601160196A35
:1029A00080220902090A12060A431A62254BFC21F9
:1029B0001A6A0A431A62196AFC2292010A431A62CD
:1029C000196AA022D2020A431A6200E0FEE7201C24
:1029D0000021013400F042F8142CF8D11A4C63782D
:1029E0005BB2002BFADB194B6380194B5A7ED2097C
:1029F000012AFAD0E422D2009A803F22DA70597E6E
:102A0000134AC9090129FAD0C0235B0100201361D0
:102A1000907000F009FD63785BB2002BFBDB0D4A80
:102A2000094B5A800C4BDA79D209012AFAD041229B
:102A30005A7010BD0C000020FFFFFF0010E000E006
:102A400000ED00E000040040000C00401E400000CB
:102A500000400042214000000048004210B5182408
:102A6000021C201C5043274B1818007A40B201303A
:102A700046D0032944D8081C211C02F01FF9023358
:102A80001121624398569A18C3011F4852681B18B7
:102A900099184031022008700121914059602FE0BF
:102AA0006243985618499A185268C3015B189918DE
:102AB00040310620087001219140596099611FE062
:102AC00051435A56104859184B68D2011118C8186A
:102AD0004030062404700120984048600B49521889
:102AE00050600DE0624398569A18C3010648526838
:102AF0001B189918403102200870012191409960FB
:102B000010BDC046906F00000044004110440041D9
:102B100018235843134AF0B5131808241C570134DE
:102B20001FD08256104ED2015D6801249019231CDB
:102B30008668AB401E420BD10E1C771EBE41401969
:102B400034404030A50004780426B4432C4304707C
:102B5000002903D105495218536002E0024E921930
:102B60009361F0BD906F00000044004110440041AB
:102B700018235843084A082113185956013109D01F
:102B800082560649D20152185B68106AD840012368
:102B9000184000E000207047906F000000440041A2
:102BA000F7B58A18061C0D1C01920C1C019B671BB3
:102BB0009C4207D0336821781B68301C9847013449
:102BC0000028F3D1381CFEBD38B5051C0C1C081EAE
:102BD00007D004F04BF92B68021C5B68281C211CF1
:102BE000984738BD08B5FFF7EFFF08BD08B5036883
:102BF0001B68984708BD000008B50249FFF7E4FFCD
:102C000008BDC046496F000038B5041CFFF7DCFF63
:102C1000051C201CFFF7F0FF281838BDF0B58DB05B
:102C2000161C0BAB002201900C1C1A70012E00D850
:102C30000A266D462B35201C311C02F08DF8201C15
:102C4000CFB2311C02F044F8291C041C092F01D812
:102C5000303700E03737FFB22F70013D002CEAD14A
:102C60000198FFF7B1FF0DB0F0BDF8B5041C0D1CC5
:102C7000161E04D10368C9B21B68984712E00A2ADD
:102C80000DD100290ADA2D21FFF7B0FF6942071C98
:102C9000321C201CFFF7C2FFC01903E000E0D2B2D3
:102CA000FFF7BCFFF8BD38B5041CFFF7DEFF051CBD
:102CB000201CFFF7A1FF281838BD0000000000000D
:102CC000F7B51C1C08AB1B78071C211C101C151C1D
:102CD000009301F0C3FF002802D1381C504907E0DF
:102CE000281C211C01F0BAFF012804D14D49381CD1
:102CF000FFF76AFF7CE0281C211C404B3E4A02F093
:102D000061F8002802D0381C4749F1E7281C211C33
:102D10003B4A3C4B02F042F80028F4D1281C211C0D
:102D2000394A3A4B02F03AF8002808D02D21381CD5
:102D3000FFF75CFF802109060190641800E0019014
:102D40000026334A334B00998E420AD0101C191CBE
:102D5000314A324B02F0CEFC0136021C0B1CF6B29B
:102D6000F1E7281C211C02F0A9F90D1C041C02F03B
:102D700077F8061C03F016FF0B1C021C291C201CF4
:102D800003F0B2FB0A22041C0D1C381C311CFFF797
:102D900045FF019B0099C618002904D0381C2E213C
:102DA000FFF724FF3618009B002B20D01A4A1B4B3C
:102DB000201C291C03F008F90D1C041C02F050F81B
:102DC00001900A220199381CFFF728FF3618019854
:102DD00003F0E8FE0B1C021C291C201C03F084FBE2
:102DE000009B041C013BDBB20D1C0093DBE7301C95
:102DF000FEBDC046C046C046000000E0FFFFEF41F8
:102E0000000000E0FFFFEFC1000000000000000034
:102E1000000000000000E03F00000000000024402F
:102E20004C6F0000506F0000546F0000C046C04659
:102E300037B5041C0698C1B20091201CFFF740FF73
:102E4000051C201CFFF7D8FE28183EBDFEE7000039
:102E500008B5034B1B68002B00D0984708BDC0463F
:102E6000BC02002038B50F490F4CA14204D100F03C
:102E700095FB00F073FB0BE00C4D8D42F7D0002367
:102E8000CA18E818A24204D2006804331060F7E7B9
:102E9000FEE79042EBD0064B064A9342E7D200226F
:102EA00004C3F9E70000002020010020A8740000FE
:102EB00020010020D80A002008B500F06EF8002894
:102EC00001D100F089FC08BD014B18607047C04675
:102ED000BC02002018224243F8B52D4D0824AA1840
:102EE0001457031C621C50D0481C00240C284CD8DA
:102EF00001F0E4FE071E1E1E1E1E1E1E1E0A0A0AEA
:102F00000A000124644240E0092902D1181C002172
:102F100003E00A2904D1181C0221FFF79FFD23E0DA
:102F200000240B2931D1181C0121FFF797FD2CE05B
:102F300018225343EA185268EB560120141C04402F
:102F40005508DB01002C11D0124C1B195D193035CE
:102F50002E780C010F21314021439A18C9B22970F3
:102F6000403213781843107000240EE0094E0F27EA
:102F70009B195D1930352E789A18BE433143C9B27A
:102F800029704032137818431070201CF8BDC046D9
:102F9000906F00000044004170470020704700001F
:102FA000F8B50024094B1B689C420DD2084E094F0E
:102FB000A5003369EA591A4204D0074BEB589847E9
:102FC000EB5933610134EDE7F8BDC04648030020FA
:102FD0000018004004030020C002002001207047B8
:102FE00008B50368014A1B6A984708BD130400002E
:102FF000826D436D9A4203D0836DC018007D01E05D
:1030000001204042704710B5041C006901F001FC2A
:103010000023221C63659C32A365A03413602360E7
:1030200010BD0000F0B587B001930CAB1B780025F4
:1030300002930DAB1B78402603930EAB1B78041C48
:1030400004930FAB1B780F1C0593FA239B0083603E
:10305000124B0092083303604560291C321C143067
:1030600003F095FE201C6565321CA565291C5C30AB
:1030700003F08DFE009A231C9C331D605D60276168
:103080001A72019A201C5A72029A9A72039ADA7280
:10309000049A1A73059A1A7707B0F0BD586F0000AA
:1030A00030B585B0041C08A8057809A800780095FB
:1030B0000190FF2002900390201CFFF7B3FF201C1B
:1030C00005B030BDF023081C184030384342584149
:1030D0007047F0231B01194080239B0099420CD0BC
:1030E000C0239B00994206D080235B0005209942B3
:1030F00004D0002002E0072000E0062070470F23E4
:103100001940012905D002394B424B410220C01A17
:1031100000E0002070470000F0B5031C85B003916B
:10312000A433041C182718783B1C4343344E082151
:10313000F3185956151CFFF7CDFE231CA53318783C
:103140003B1C43430821F3185956FFF7C3FE231CC9
:10315000A7331B78022B0AD1231CB8331878FF2819
:1031600005D047430821F7197956FFF7B3FE271C0E
:10317000A8373878FF281AD00121FFF76FFC3B7879
:1031800018225A43B3561F4FDB01211CAC31D8190A
:1031900008601D49B6185B18211C7268B0310B60BD
:1031A000012191400A1C211CB4310A601A600121DE
:1031B0000A1C039B206901F0CFFB291C201CFFF790
:1031C00088FF291C071C201CFFF799FF291C061CDF
:1031D000201CFFF777FF391C0090331C2069012267
:1031E00001F0E8FA231CA7331978013B1A7820690B
:1031F00001F0FCFA206901F01AFB05B0F0BDC046F1
:10320000906F00001844004114440041026C436C6C
:10321000D01A00D54030704710B5041C201C5C301B
:10322000FFF7F4FF0028F9D1206901F00AFB10BD77
:1032300008B51430FFF7EAFF08BD026C436C9A42F0
:1032400004DB036C406CC01A3F3003E0426C036C3B
:10325000D01A0138704708B55C30FFF7EEFF08BDA3
:1032600038B5041C006901F0F8FA00281FD0206965
:1032700001F008FB636D3F2201331340A26D9342BE
:1032800003D0626DA21810756365231CA8331B78E8
:10329000FF2B0CD0201C1430FFF7CFFF092806DCD1
:1032A000231C221CAC33B4321B6812681A602069DC
:1032B00001F0E3FA002820D0251C5C35281CFFF71C
:1032C000A5FF031C2069002B15D0231C221CA03352
:1032D0009C3219681268914207D01A68A95C1A6872
:1032E0003F2501322A401A6001E001214942C9B25A
:1032F00001F0CCFA01E001F0D4FA206901F0B2FA51
:10330000002805D0206901F0B1FA206901F0A1FA86
:1033100038BD000070B5041C00690D1C01F0ADFA49
:1033200000280FD0201C5C30FFF770FF002840D031
:1033300008E0EFF31083DA0723D4214B5A68D20553
:10334000D20D0BD1231C9C33211C1E68A0310A68AE
:1033500001363F2006409642EBD01BE0103AD2B235
:1033600053B2002B08DA0F231A40083A154B920883
:103370009200D218536804E09B08C033124A9B00A5
:103380009B58206901F079FA0028DBD0201CFFF758
:1033900067FFD7E71A680968013202408A4204D001
:1033A0001968201C5C3045541A60206901F075FAD8
:1033B00003E02069291C01F069FA012070BDC046B4
:1033C00000ED00E018ED00E000E100E038B5826DAE
:1033D000436D041C9A4208D0836D3F22C3181D7DA3
:1033E000836D01331340836501E001256D42231C89
:1033F000A8331B78FF2B0BD0201C1430FFF71DFFC8
:103400000A2805DD231CB033B4341B6822681A6017
:10341000281C38BD914205D002D9891AC84001E064
:10342000511A88407047000000B5144A517E131CA1
:10343000C9090129F9D00138042813D81969104A9B
:103440000A401A615A780F218A4301F037FC0305BC
:1034500009070300012102E0032100E002210A43E1
:103460005A700AE01169F0231B050B43136153786E
:103470000F218B4302210B43537000BD00400042DB
:10348000FFFFFFF010B5041E0D2C00D80E34201CD9
:103490000121FFF71FFD0E2C0CD12A4BDA79D2093E
:1034A000012AFAD01A7802218A431A70DA79D209ED
:1034B000012AFBD0244B5A7ED209012AFAD01822C5
:1034C0005443224A18691419217C1F229043114049
:1034D000021C0A431A61597E1B4AC9090129FAD004
:1034E0001178022001431170597E174AC909012938
:1034F000FAD0117B02200143117301211176597E0C
:10350000114AC9090129FAD0117B02200143117324
:103510001A7ED107FCD50C4A508B80B2597E0A4ADC
:10352000C9090129FAD011780224A14311705A7EE9
:10353000D209012AFBD0064B1968064B1A68FFF71F
:1035400069FF10BD0048004200400042906F00003B
:1035500010000020140000207047000010B5FFF795
:1035600005FA03F0DBFBFFF7F7FF012000F024F979
:10357000084C201C00F080FB201C00F0F5FBFFF73E
:10358000C7F9FFF7A7F9044B002BFAD000E000BF02
:10359000F7E7C0468F0900200000000070B5494AD7
:1035A0001E21536802208B430343474953608B69B4
:1035B000082423438B61454C454B9C829C8A2043C5
:1035C0009882101CDA689407FCD5424A01241470D2
:1035D0001478E50704D53F4C647864B2002CF7DB1F
:1035E00001249460547864B2002CFBDB3A4D394CD2
:1035F0006560547864B2002CFBDB8225354CED010C
:103600006580547864B2002CFBDB02249C84DC6867
:10361000E606FCD5314D2E4CE562DD682C4CEE06FD
:10362000FBD5A58C2E4E3543A584DD68284CEE06CF
:10363000FBD5A58C02263543A584DC682506FCD580
:10364000234CE4686606F8D5DC68E506FCD5002462
:103650009460547864B2002CFBDB224D1D4C6560F5
:1036600055781C4C6DB2002DFADB1E6A1E4D35409C
:103670001D621D6A8026B5431D620323A3601B4B98
:10368000636053785BB2002BFBDB00230B72184A9C
:103690004B728B72CB72174BFF211A60164B174A75
:1036A0001B6812685C01D20E214011439A06520F2A
:1036B00012020B1C1343124A1385436880221343E2
:1036C000436070BD00400041000400400C06000053
:1036D00000080040000C004001050100B905FF7D15
:1036E000040A000000070300FFFCFFFF03060100BF
:1036F000006CDC020C000020246080002060800050
:103700000040004208B50248FFF7AAFD08BDC046C8
:103710000804002008B50248FFF7A2FD08BDC04616
:103720004C030020F7B5164F1649381C01F040F83D
:103730001549164801F03CF81549164801F038F8CB
:103740001549164801F034F81549164801F030F8CB
:10375000154D03260124281C144901F029F8391CB1
:103760000096231C019400221148FFF799FC009653
:10377000291C01941F221E230E48FFF791FCF7BD60
:10378000C804002000080042000C0042CC040020C5
:1037900000100042D004002000140042C4040020A5
:1037A00000180042D4040020D8040020001C00426D
:1037B000080400204C03002070B5041E08D0054BFF
:1037C0001D681E1CFFF7E8FB33685B1BA342F9D39F
:1037D00070BDC046DC04002008B5034B1A680132F6
:1037E0001A6001F0FDF808BDDC04002010B50723C5
:1037F0000F220240141C00093034092A00DD07346E
:10380000CC54013BF4D210BD70B582291ED1C2B296
:103810002A495301CB189D69294C80012C40C025B1
:10382000AD052C439C61274C0832201858610B6869
:10383000520199180C798020404220430871D15CD4
:103840007020814330200143D15435E0002933D129
:10385000C2B21A495301CB189E68194DC0242E409C
:10386000A40526439E60184E80010968301808326E
:1038700058605201505C0726B04301263043505433
:103880009E6935402C439C610E4C5C61505C7024F9
:10389000A0431024204350549C680C488A182040B0
:1038A000802464032043986098684021800B800343
:1038B000986053790B43537170BDC046980900203E
:1038C000FFFFFF8FEC050020B0070020FF3F00F056
:1038D00038B5041C08CC01211A78051C0A431A705B
:1038E0008022201C0021520003F051FA2B689A78A4
:1038F000D107FCD45C6238BD134BF0B51B6899034B
:103900005A029B01C90ED20E5B0F1F2900D105215F
:103910001F2A00D11D22072B00D1032304688E012A
:10392000278D0A491F2539403143218501682A40E6
:103930000C8DAC4322430A8502681903108D044B99
:1039400003400B431385F0BD246080003FF8FFFF68
:10395000FF8FFFFFEFF3108303600123436072B614
:1039600070470368002B02D162B6BFF36F8F7047B8
:1039700037B50569041C6846002D12D1FFF7EAFF30
:10398000019B013B03D3621DD57FEDB2F9E7684689
:103990000193FFF7E6FF0020854217D0206AE36914
:1039A00013E0FFF7D7FF019B0025013B04D3221C46
:1039B00034321578EDB2F8E768460193FFF7D1FF8E
:1039C0000020854202D0206BE36AC01A3EBD000091
:1039D000436810B51A68037A01215B01D318FF33DD
:1039E0009A7A0A439A72037A42685B01D318C268D2
:1039F0009C6891040B4A090922400A439A60037AA1
:103A000042685B01D3189A684021920B92039A6036
:103A100043681A68037A08335B01D3181A790A439A
:103A20001A7110BDFF3F00F0F7B50569041C0E1CAC
:103A3000171C6846002D1FD1FFF78CFF019B013B2F
:103A40005A1C06D0621DD17F5A1E00293AD0131C81
:103A5000F6E768460193FFF784FF0025E369BD425E
:103A600035D0226A934232D25A1CE261A269D3183D
:103A70001B7873550135F1E7FFF76CFF019B013BA4
:103A80005A1C08D0221C343215785A1EEDB2002D73
:103A900018D0131CF4E768460193FFF762FF002576
:103AA000E36ABD4226D0226B934241D322E0621DDD
:103AB0000021D17730321678581E8E4214D1031C63
:103AC0005A1CF4D168460193FFF74BFF38E0226A95
:103AD000934235D10023E361012323616846FFF758
:103AE00039FF019B013BEBE71170201C0193FFF7AD
:103AF0006FFFF6E7226B934222D10023E36223613A
:103B00006846FFF727FF019B013B5A1CDAD0221CB5
:103B100034320021117001321678581E8E4201D1C4
:103B2000031CF2E71170201C0193FFF751FFEAE735
:103B30005A1CE262A26AD3181B7873550135AFE7AD
:103B4000281CFEBD37B54368027A1B680832520153
:103B50009A18041CD0790123FF21184255D0D37143
:103B6000A068656962680140002D1FD149015218A3
:103B700091688904890C2162216A002942D063611D
:103B8000A36A68465360FFF7E5FE019B013B5D1C9D
:103B900034D0621D0120D0772F3211785D1EC9B25A
:103BA0001218002915D111702B1CF0E74B01D31806
:103BB0009A689204920C2263226B002A22D000227F
:103BC0006261A26968465A60FFF7C4FE019B013B2F
:103BD00012E0019310706846FFF7C3FE15E0221C47
:103BE000343201201070621DD17F5D1EC9B23032A7
:103BF0000029EED111702B1C5D1CF0D16846019399
:103C0000FFF7AFFE201CFFF7E3FE37BD37B50023FB
:103C10006C46E3710734201C0D1C00F0BDFF2B68BF
:103C20001818286000F060FF211C00F017FF2B68B7
:103C30001818286020783EBD03290BD10D4BB22205
:103C40001B685200985C802149420143995402212B
:103C500068220CE001290CD1064B92221B6852000D
:103C6000985C802149420143995402212822FF3265
:103C7000995470479809002038B5304B0024012131
:103C8000051C1A201C70FEF7E9FE1A200121FEF720
:103C90003FFF2B4B192001211C70FEF7DFFE19207E
:103CA0000121FEF735FF274B2021DA6901200A4365
:103CB000DA61254B06241A7802431A70234B0F222F
:103CC00019789143197019782143197020490C789B
:103CD0002043087019780A401A701A7860210A4344
:103CE0001A701C4B1C4A5A805A78D209FCD11B48C6
:103CF000FFF7EAF81A4C201CFFF7EAFD201CFFF73B
:103D0000FBFD23687F2219780A401A701A78042173
:103D10000A431A701A890C218A431A81C121114A57
:103D2000890050580002000A5050802111601A7812
:103D300002210A431A7001232B7038BDAC07002002
:103D40009409002000040040584400413C440041D4
:103D500059440041000C004006400000914700001B
:103D60009809002000E100E00078002810D0094BFD
:103D700001211B681A898A431A811A8B08210A4378
:103D80001A831A8B04210A431A83034B00221A60F8
:103D90007047C046980900209C0A00200F4B9A6982
:103DA000920B92039A611B680222FF331A72987970
:103DB0008022524202439A711A7A9007FCD5084B2E
:103DC000081C997A7F221040914301439972997A95
:103DD000802252420A439A727047C04698090020D6
:103DE0000050004110B50B790C1C002B0BD1081CA6
:103DF00000F0E0FE002804D1094B9A69920B92036F
:103E00009A6101200BE000F06FFE211C00F05AFEC9
:103E10000028F6D1024B9A69920B92039A6110BD69
:103E200098090020F7B50E1C832A18D1CAB235496B
:103E30005301CB189C693448B6012040C024A40526
:103E4000204398613148083286195E610B6852013F
:103E5000D15C7020814340200143D15450E0022ABC
:103E60004AD12B4A89008D580191002D48D1382024
:103E700000F0F0FD274B80270360224B7F0043605A
:103E8000431D0562866005614561C561C760DD77D8
:103E90002F33041CC56205631D70381C5D7002F071
:103EA00063FFA061381C02F05FFFFF2315491E402D
:103EB0007601A0628E19B168134A07250A40C02115
:103EC00089050A43B260A168626819401268083126
:103ED0004901885CA843032528438854A268616887
:103EE00013405B01A269CB185A60201CFFF770FDDC
:103EF000019B07495C5003E0081C111CFFF784FC80
:103F0000F7BDC04698090020FFFFFF8FEC05002099
:103F100070090020B873000038B5051C0124064B59
:103F2000A200D258002A06D0211C281C0134FFF719
:103F300079FFE4B2F3E738BD1800002008B5084B5C
:103F40008A00D058002803D003689B68984706E091
:103F5000C9B2044B4901591888688004800C08BD17
:103F6000700900209809002010B50C1CFFF7E6FF2F
:103F700000280CD0064BE1B21B68083149015918E2
:103F80004A7980235B4213434B710223CB7110BDEE
:103F90009809002070B5CAB2134B14485401890126
:103FA0005918031959609D68114908322940802524
:103FB000AD022943996099684026890B890399606D
:103FC0000368510159180D7935430D715101591884
:103FD00089794D06FAD551015918C979CD07FAD515
:103FE0000419A068C0B270BDB00700209809002075
:103FF000FF3F00F038B50C4B141C1B680D1CFF3341
:104000005A7940210A435A710021FFF7C3FFA042A9
:1040100000D9201C0023A34204D0044A9A5CEA542D
:104020000133F8E738BDC04698090020B0070020EA
:1040300010B5C9B20C48490143189A689204920C11
:104040003F2A08D9141C9A68403CA404920BA40C83
:104050009203224302E09A68920B92039A604118FD
:104060008868C0B210BDC04698090020F0B51C1C7D
:104070002F4B85B01B68061C0D1C0292002B51D0E3
:104080002C4F3978C9B2002902D11920FEF740FD22
:1040900064233B70284BAA00D058002805D0036841
:1040A00002995B68221C984740E0301C291CFFF7EE
:1040B00045FFA04204D2301C291CFFF73FFF041C1F
:1040C000291C301CFFF7B4FF1C4FE9B24A010191D3
:1040D000396803928B18FF335A7A01210A43184931
:1040E0005A72AB01C9180298221C02F047FE002C3C
:1040F0001BD0301C291CFFF721FF002815D1019B84
:104100003A6808335B01D3181979402001431971CB
:104110000121D97103995318FF339A7A01210A4377
:104120009A7202E00120404200E0201C05B0F0BD80
:104130009C0A0020940900207009002098090020A2
:10414000B007002013B56C460734221C0123FFF78B
:104150008DFF012801D1207801E00120404216BDE9
:10416000F0B51C1C3F4B85B01B680E1C0292002B47
:104170006AD08023DB019C4266D83B4D2978C9B2C6
:10418000002902D11A20FEF7C3FC642300222B7001
:104190000092002C56D0354DF7B22B6801933B1C92
:1041A0000833019A5B01D3189B79DB091AD0304B95
:1041B0003049186800F08CFD2F4B1721584300F050
:1041C00087FD3B1C0833019A5B01D318DB799A0702
:1041D00008D42A4B9A5D002A38D1421E002835D0D7
:1041E000101CEEE7254B00229A55251E3F2D00D9C5
:1041F0003F25234AB301D318181C02992A1C0393A4
:1042000002F0BCFD194A7B01D318039AA9045A6134
:104210009A69890C920B92030A439A613B1C019A9A
:1042200008335B01D3180222DA7159798022524295
:104230000A435A71009B029A5B1952190093641B3E
:104240000292A6E700980BE0012008E001229A55AF
:104250007B01ED18AB69101C9B0B9B03AB614042CB
:1042600005B0F0BD9C0A0020AC0700209809002092
:104270000C00002040420F0070110100E4050020F6
:10428000EC05002070B50E4D1C1C8B01ED18281C90
:104290000E1C111C221C02F071FDF6B209497601B8
:1042A00089194D618A69084B201C13408B618B6909
:1042B000A2049B0B920C9B0313438B6170BDC04601
:1042C000EC05002098090020FF3F00F0F7B5114BE6
:1042D00001901B780F1C141C002B19D10E4B1E785B
:1042E000002E01D1151C08E00C4D0D482E888019B8
:1042F000361902F043FD2E800AE0002D08D0BA19CD
:104300002B1C01980021FFF7BDFF36182D1AF4E78A
:10431000201CFEBD8E0900208C090020E205002033
:10432000E1040020F8B50E1C00AF151E012D28D9A0
:10433000D31DDB08DB006A46D21A9546081C02F042
:1043400095FD01306C46400003232070637002220B
:10435000AA420ED23378002B0BD0511CC9B20136C1
:10436000A354A94204D0002302326354D2B2EFE72F
:104370002A1C0548211CFFF7A9FF431E9841C0B223
:1043800000E00020BD46F8BD8F09002008B5044BB1
:1043900000221A70034B04491A88FFF797FF08BDE3
:1043A0008C090020E2050020E1040020F0B5204A3D
:1043B00087B001230026009102A91370051C029604
:1043C000FFF724FC03AC092701903A1C201C311C88
:1043D00002F0DDFC02236370A023E371FA23237251
:1043E000029B0122DB196380019B62712371104AD9
:1043F000009B27701670BB4205D1281C211C1A1C7B
:10440000FFF764FF11E00B4B01221A700A4B211CCD
:104410003A1C281C1E800296FFF758FF281C02A990
:10442000FFF7F4FB281CFFF7B1FF012007B0F0BD38
:104430008E0900208C090020E205002070B5CE789E
:1044400092B0051C0C1C022E08D1C9882D48FFF71C
:10445000ADFF031C581E8341D8B251E000F044FB6D
:10446000211C00F010FB002803D0C3171B1AD80F23
:1044700046E0012E04D1E2882349112A3BD837E0D7
:10448000032E3DD1A278002A05D12049E2880B787D
:1044900093422DD82FE0022A03D1A279281C1C496F
:1044A00004E0012A05D1A2791A49281CFFF73AFF36
:1044B00026E0032A24D1184B01A91868FFF796F9C2
:1044C000164B03A91868FFF791F9154B05A9186851
:1044D000FFF78CF9134B07A91868FFF787F900F06D
:1044E00003FB09A900F0DFFAA279281C01A9DDE786
:1044F000D2B2002A00D10A78281CFFF7E7FE01207B
:1045000012B070BD8F090020D8730000D473000072
:10451000EA730000C87300000CA0800040A0800077
:1045200044A0800048A0800073B5051C48780C1C8E
:104530000B2878D800F0C2FB081C7728773E43068A
:10454000474B686F00206FE0097801AA002903D16A
:1045500011705170281C09E0002313705370334B05
:104560001B78012B00D11370281C002102234FE07F
:104570008A780023012A04D101AA137053702C4BAE
:10458000EEE72A4A137049E08E78012E07D1284BB6
:1045900001AA00211E701170281C331C38E0002E67
:1045A00008D1224A01231370224A9169890B890399
:1045B000916138E0A178281CFFF7F0FB33E0281C5C
:1045C000FFF73CFF30E0281C00211B4A1FE00A785F
:1045D0000020D30628D1281CFFF79EFCA27815499D
:1045E000154B02241A600A682A23FF33D05C20434B
:1045F000D0544A20FF30145C01231C4314548A69B0
:10460000920B92038A610EE00C4A281C00210123C0
:10461000FFF738FE07E08A78084B1A60054B9A6965
:10462000920B92039A61012076BDC046E0040020FF
:104630008D090020980900209C0A00209009002084
:10464000F8B54B4B071C1C78002C00D08FE0494D6F
:104650002868838B19070ED5201C211CFFF7D4F87E
:104660002B6810201A1CFF32917A01439172424A42
:10467000146008229A832B689A8B50071FD5042256
:104680009A833E4B1A78002A0AD01A78013AD2B29D
:104690001A701B78002B03D11A200121FEF738FA7B
:1046A000374B1A78002A0AD01A78013AD2B21A7017
:1046B0001B78002B03D119200121FEF729FA2B6862
:1046C000FF331A7AD10626D510221A725A79402160
:1046D0000A432C495A710A786023381C1A4202D1C5
:1046E000FFF722FF01E0FFF77DFB002806D02B68D3
:1046F0008022FF33997952420A4301E0224B202263
:104700009A712B68FF331A7A500604D540221A7228
:10471000597A0A435A722968FE230E8C00241E40DF
:10472000E1B2002E23D0321C012322411A4216D0BE
:10473000221C2868083252018218D079184203D10D
:10474000D279DA401A4207D0104BA200D058002884
:1047500009D003681B6898470123A3409E43013496
:10476000092CDDD103E0381CFFF766FAF4E7F8BD49
:104770008C090020980900209C0A0020AC0700202A
:1047800094090020B0070020FF500041700900206C
:1047900008B50248FFF754FF08BDC0468F09002046
:1047A000014A024B1A6070470050004198090020EE
:1047B00001607047F7B508AC267804689D1E27682D
:1047C0006C1EA541ECB2920705683A4327063A43AE
:1047D0002A600268072529405068B501002C00D0E6
:1047E0005C03294301430C435460F7BD30B50368B3
:1047F000C0251C68AD0312052A402243C024A40230
:10480000090421401143196003685A6814435C602D
:1048100030BD036801211A680A431A6002681168F2
:1048200001231942FBD1D1691942F8D170470368BD
:1048300002211A680A431A600268D3699907FCD4F6
:10484000704703681A7ED10702D41A7E9107FCD5FF
:104850007047036800225A8370470368187E400738
:10486000C00F70470368187EC00970470368802234
:10487000197E52420A431A7670470368187E012354
:10488000184070470368188DC0B2704703681A7EDD
:1048900001200242FBD019857047036801229A75F6
:1048A0007047036801221A75704700000368224AA6
:1048B00030B5934211D0214A934211D0204A9342FD
:1048C00011D0204A934211D01F4A934211D01F4A5F
:1048D000934230D10E2319220DE0092314220AE05D
:1048E0000A23152207E00B23162204E00C231722CB
:1048F00001E00D231822DCB2154901209B08A040DD
:104900009B0008605B180320C021890004405D58AB
:10491000E000FF248440A5432C1CC0258540281CB2
:10492000204358508023DB011A430A4B5A805A789F
:1049300052B2002AFBDB30BD00080042000C0042EE
:10494000001000420014004200180042001C004207
:1049500000E100E0000C0040F8B5041C151C0E1C22
:104960001F1CFFF7A3FF201CFFF753FFB1001C2201
:104970000A4069072368090C0A431A6022688423E5
:104980009375012E1AD10821012D00D110210C4B55
:1049900079431868C00000F09BF9236807219A89C1
:1049A0000140D2044903D20C0A439A8123680004CF
:1049B000C20C9889400B400310439881F8BDC04653
:1049C0000C000020014B18607047C04640000020DA
:1049D000024B012252421A607047C046400000203C
:1049E000154A1368581C25D0013B1360002B21D1B8
:1049F00072B6124A124B04329A4207D8BFF34F8F55
:104A0000104A114BDA60BFF34F8F11E00F4B197D45
:104A1000C807FBD5188B2021FF31920852000143B3
:104A20001983DA610A4A1A801A7DD107FCD5E5E7B5
:104A3000C046FDE77047C04640000020002000004F
:104A4000030200000400FA0500ED00E00040004110
:104A500002A5FFFF08B502F087F908BD70B54468EC
:104A60000E1C0025002C09D02368201C5B68311C1B
:104A70009847002804DB2D18E468F3E7281C01E0C0
:104A80000120404270BD38B544680D1C002C08D090
:104A90002368201C9B68291C9847002802D1E468E1
:104AA000F4E7201C38BD38B544680D1C002C07D035
:104AB0002368201C291CDB689847E4682D18F5E75B
:104AC0002C7038BD38B544680D1C002C08D0236804
:104AD000201C1B68291C9847002803D1E468F4E7D0
:104AE000201C00E0012038BD064B0122196810B5DA
:104AF0001140054805D1022404700424447041602B
:104B00001A6010BDA80A0020A00A00203F207047AC
:104B100013B502686B46D97107335468191C01221A
:104B2000A04716BD08B500690221FFF707FA08BDC6
:104B300008B500690321FFF717FA08BD38B50D1C49
:104B4000041C131C006903212A1CFFF709FB002821
:104B500001D10123636038BD10B5054C23685A1C90
:104B600004D103685B6998472060031C181C10BDC2
:104B700094000020074A08B51368591C04D001218D
:104B800049421160181C03E000690221FFF7DAFABC
:104B900008BDC0469400002008B5037803490233DD
:104BA000037042220248FFF791FB08BD500000202D
:104BB0008F09002010B50178031C42780020A1293C
:104BC00008D1212A2FD1184818490722FFF77EFB68
:104BD000012028E0212926D1202A05D113490722C6
:104BE0001148FFF707FA04E0222A10D19A780F4BF8
:104BF000DA710E4B96221968D200914210D1DC79FD
:104C000001231C400CD1FA20FFF7DCFE0AE0232A26
:104C100009D1DA789B7812021A43054B1A6002E038
:104C2000FFF7D6FE002010BD8F09002044000020B1
:104C30004C000020064BFA218900996005490022AA
:104C40000831196004495A6019611A767047C046E4
:104C5000AC0A0020F87300008F0900200B1C011C17
:104C6000021C30B519430220002900D130BD80213B
:104C700009068B4216D00D4904205C180C498C4261
:104C8000F4D90C4D5C198C42F0D90B4C59004908F1
:104C90000320A142EAD9074C0020A142E6D15042AC
:104CA0005041E3E7002AE1D0EFE7C0460000F0FF03
:104CB000FFFFDF7F0000F07FFFFF0F0002B47146AF
:104CC00049084900095C49008E4402BC7047C0464F
:104CD000002934D00123002210B488422CD30124AF
:104CE0002407A14204D2814202D209011B01F8E744
:104CF000E400A14204D2814202D249005B00F8E7FD
:104D0000884201D3401A1A434C08A04202D3001B28
:104D10005C0822438C08A04202D3001B9C0822435B
:104D2000CC08A04202D3001BDC082243002803D099
:104D30001B0901D00909E3E7101C10BC70470028CB
:104D400001D00020C04307B4024802A140180290DD
:104D500003BDC046190000000029F0D003B5FFF7DD
:104D6000B9FF0EBC4243891A1847C0467047C04677
:104D70008446101C62468C46191C634600E0C046FF
:104D80001FB501F0A3F8002801D40021C8421FBDBF
:104D900010B500F0D3FF4042013010BD10B501F056
:104DA00095F8002801DB002010BD012010BDC04691
:104DB00010B501F08BF8002801DD002010BD0120A6
:104DC00010BDC04610B501F003F8002801DC00203A
:104DD00010BD012010BDC04610B500F0F9FF00283D
:104DE00001DA002010BD012010BDC0468446081C19
:104DF0006146FFE71FB500F0C5F8002801D4002187
:104E0000C8421FBD10B500F04BF84042013010BD44
:104E100010B500F0B7F8002801DB002010BD01201C
:104E200010BDC04610B500F0ADF8002801DD00202F
:104E300010BD012010BDC04610B500F05BF8002881
:104E400001DC002010BD012010BDC04610B500F0EF
:104E500051F8002801DA002010BD012010BDC04625
:104E600038B50E4B0C4A041C0D1CFFF7B5FF00288B
:104E700004D1201C291C01F061FE38BD074B064AF5
:104E8000201C291C01F030FB01F058FE80231B067A
:104E9000C018F2E7C046C046000000000000E04134
:104EA0004A02430270B55C0A550A43004A001B0ED1
:104EB000C60F120EC90FFF2B05D0FF2A08D0012004
:104EC00093420BD070BD0120002CFBD1FF2AF6D1FC
:104ED0000120002DF6D101209342F3D1AC42F1D153
:104EE0008E4205D0002BEDD1201C441EA041E9E7E5
:104EF0000020E7E74A024302F0B55C0A550A430086
:104F00004A001B0EC60F120EC90FFF2B31D0FF2A0D
:104F100034D0002B16D1604260418446002A14D060
:104F2000002820D18E4217D1934215DC04DBAC421D
:104F300012D80020AC4212D270427041404201238C
:104F400018430CE0002AEDD194466F426F41604651
:104F5000002805D1002FE5D0704201231843F0BD91
:104F60000020002FFBD14842484140420123184312
:104F7000F5E7002CCBD002204042F0E7002DC8D04E
:104F8000F9E7C0464A024302F0B55C0A550A4300FD
:104F90004A001B0EC60F120EC90FFF2B27D0FF2A87
:104FA00029D0002B10D0002A15D194466F426F41B2
:104FB0006046002815D00020002F04D14842484107
:104FC000404201231843F0BD604260418446002AFC
:104FD000ECD00028F2D18E4211D070420123184348
:104FE000F1E7002FF7D0704201231843EBE70220CE
:104FF000002CE8D1D3E70220002DE4D1D1E7934281
:10500000EBDC04DBAC42E8D80020AC42DBD27042DF
:105010007041404201231843D5E7C04610B5041E35
:1050200033D001F045FE9E231B1A962B09DC08386D
:1050300084406402640ADBB26402DB05600A184340
:1050400010BD992B0ADD0522121A211CD1400A1C21
:10505000011C1B318C40611E8C411443052801DD6D
:10506000421F9440144A2240610704D00F210C4093
:10507000042C00D0043251010AD59F23181AFF28AE
:1050800016D09401640AC3B2D6E700230024D3E704
:10509000D208FF2B03D05402640ADBB2CCE7002A0B
:1050A00006D08024E40314436402640AFF23C3E7A8
:1050B000FF230024C0E7C046FFFFFFFBF8B55F46B3
:1050C000564644464D46F0B40C034D00CE0F610ADF
:1050D000440F2143C400180380465800400D824607
:1050E000D80F84464046400A530F0343D0006D0D4D
:1050F000371C83465246664500D19DE0AF1A002F0B
:1051000000DC03E1002A38D1184300D0E4E0630753
:1051100009D00F232340042B05D0231DA342A44113
:10512000644209191C1C080200D478E0CE4B6A1CAA
:105130009A4200D105E1CD4BE408194048075205D9
:10514000490204430B0B520D371C002000211B03A6
:10515000201C1C0B0B0D1B05C54D2343520552088B
:105160001D4015436D006D08FF07291C39433CBCE9
:1051700090469946A246AB46F8BDBB488542C6D08C
:10518000802000040343382F00DDECE01F2F00DDFA
:1051900020E12020C01B1A1C814682405846F8405E
:1051A0000243944658464A469040421E9041FB4076
:1051B000624602431F1CA21A9442A4416442C91BC6
:1051C000091B141C0B02A2D549024F0A002F00D163
:1051D000C4E0381C01F06CFD021C083A1F2A00DDF7
:1051E000B7E02821091A201C9740C8400743944083
:1051F000954200DDA9E0551B691C1F2900DDD8E0A0
:105200001F22551B3B1C221CAB40CA40AC40651EF4
:10521000AC411343CF401C43391C002577E74807B6
:10522000E4086A05C908520D371C04438E4B9D42A1
:1052300048D009030B0B88E7AA1A9446002A00DC21
:1052400098E05046002853D08748854200D15EE759
:105250008020000403436246382A00DDFDE01F2A57
:1052600000DD4BE120226046101A1A1C8240824663
:10527000914658466246D0404A46024390465846B8
:1052800052469040421E9041424602436046C3400F
:105290001219A242A441644259180919141C0802A7
:1052A00000D434E7704B01359D4200D124E16F4BAF
:1052B00060081940012323401C1C0443CB071C43F6
:1052C000490824E70B1C234300D1C7E180231B03BB
:1052D0000B431B031B0B38E7013F002F64D15846DB
:1052E000221A9442A4416442C91A091B141C69E79A
:1052F0005846184300D10AE70122524294446046BE
:10530000002800D0C5E058460219C2E7002F72D12C
:10531000681C4005400D012800DCDEE05A46A21A58
:105320009442BF41C81A7F42C71B380200D488E0AC
:105330005A46141BA3459241591A52428F1A664687
:1053400044E7371C00230024FFE64849AD1A3940E2
:10535000DDE6271C28388740002449E7201C01F09F
:10536000A7FC203038E75A461A43531E9A41D2B25E
:10537000002720E7002A00D0DDE0681C4205520D1E
:10538000012A00DC8EE0384DA84200D1B3E05D4632
:105390002A19A242A441644259180919CC0752089B
:1053A00014434908051CB2E62F48854200D0EAE6BE
:1053B000ADE62B1C1F3B3A1CDA40131C20296DD094
:1053C0003F22551BAF403C43601E84411C430021DB
:1053D00000259CE6381C20381A1CC240101C202FC7
:1053E0005ED04022D71BBB405A461A43531E9A41F7
:1053F00002430027DFE6002D3CD01B4DAA4500D11B
:1054000094E080252D047F422943382F00DDADE054
:105410001F2F00DD2CE12025ED1B081C261CA840B9
:10542000FE40AC400643651EAC413443F9405D4646
:105430002C1BA34592415B1A5242991A5546664667
:10544000C0E6131C3B43141C002B00D0BEE6002713
:105450000022002500210024E8E65A461A43531E84
:105460009A41D2B2002313E7FF070000FFFF7FFF3E
:10547000FFFF0F800D1C254358D0FF43002F51D153
:10548000041BA3459241591A5242891A5546664651
:1054900098E69648854200D0DDE638E6002792E798
:1054A0000023A1E7081C2043002D00D0C0E0002805
:1054B00000D1FBE05846184300D128E658460219AF
:1054C000A242A441644259180919141C0A0200D4CA
:1054D0001DE6874B0125194019E6081C2043002DC5
:1054E00039D100286DD15946194300D1BDE0191CAE
:1054F0005C4666460BE6051C2A1CABE76046203876
:105500001A1CC24060469146202800D1ABE04022E0
:10551000121A93405A461A43531E9A414B461A4355
:105520000023B5E6714DAA4500D06EE7191C5C4614
:1055300055466646EBE5002D1ED10D1C254373D064
:10554000D543002D6DD15C445C45924159185242BF
:1055500089185546A3E6002849D15946194300D178
:1055600096E0191C5C466646604DD0E50C43611E12
:105570008C41E4B200215AE75C4DAA4554D0554213
:10558000802210040143382D00DD85E01F2D00DD51
:1055900095E02022501B0A1C84468240201CE840D3
:1055A0000243904662469440601E84414246144342
:1055B000E9405C445C459241CB18524299185546EB
:1055C0006DE65846184300D1A1E55846271ABC425B
:1055D0009241C81A5242801A02026AD55846041BE8
:1055E000A3459241591A5242891A66468FE5584698
:1055F000184336D04807E40804438020C908000354
:10560000014208D0DD08054205D15946CA085C07A9
:105610001443291C6646630FC9001943E400334D47
:1056200075E5324A9245AED1191C5C4655466EE589
:10563000002837D05846184313D080254807E4087F
:10564000C9082D0304432942E5D0D8082842E2D1F5
:105650005D46EA085C071443011CDCE700230024D4
:1056600073E5224D53E5002354E700270022F1E6BD
:105670003D1C203D0A1CEA40151C202F31D040263D
:10568000F71BB9400C43611E8C412C430021CEE630
:10569000164A0027151CDDE60C43611E8C41E4B25E
:1056A000002186E7191C5C46104D30E5191C5C464C
:1056B0002DE5031C3B43D8D0011C3C1C27E52020D2
:1056C000404240190A1CC2409046202D0BD0402079
:1056D000451BA9400C43611E8C4145462C430021CB
:1056E00067E70021CEE70021F4E7C046FF0700008E
:1056F000FFFF7FFFF0B5564644465F464D46F0B487
:105700001F1C0B031B0B98464B0087B0041C8146E3
:105710005B0DC80F161C9A460090002B51D06A4BA7
:105720009A4531D08022414652030A43630FD2008A
:105730001A43664B90460025E20091469A440024A5
:1057400002953B031B0B9B46FD0F7B00311C5B0D41
:10575000019560D05C4A934254D080215846490359
:105760000143720FC9001143584A8B469B18F10040
:105770000020009A04436A4003920F2C00D9ADE048
:10578000534EA4003459A746404604436ED100212D
:1057900002250824884689460295D2E7009C029893
:1057A000C34649460194022864D0032800D1ABE2E5
:1057B000012800D038E2019A002402400025A146C9
:1057C00060E0434623434AD04046002800D1C0E170
:1057D00001F06EFA031E272B00DDB3E128210D1A1C
:1057E000211C083B4246E9409A400D1C1543221CEF
:1057F0009A40A8469146374B00251B1A9A4600242A
:1058000002959EE75A4616430320002EB1D1B346B7
:1058100000210220ADE75A4632431BD05B46002BE5
:1058200000D18AE1584601F043FA272800DD7DE1E6
:105830002822171A011C321C08395B46FA408B409B
:10584000171C1F43331C8B40BB46191C214B1B1AD2
:1058500000208EE70027BB460021012089E70020B9
:10586000012504248046814602956AE703250C241D
:10587000029566E7019C0394039D01222A400024BF
:10588000114DA146002000212403260B0C0D2405F8
:10589000114B34432D0523402B435B005B08D2079B
:1058A000191C4846114307B03CBC90469946A24695
:1058B000AB46F0BD0022802424039146024DE1E76F
:1058C00000240025A146DDE7FF07000001FCFFFFE3
:1058D000207400000DFCFFFFFFFF0F805546ED1AFE
:1058E0000495D84500D953E100D14EE1049C002530
:1058F000013C4E4604944746A946584603020C0E06
:105900001C430902250C23041B0C0091381C291C84
:105910000193FFF7DDF9019983464143381C8A461C
:10592000291CFFF719FA330C090419438A450CD9CD
:105930005B460919013B8C4200D947E18A4500D8F2
:1059400044E102225242934409195346CB1A181CCF
:10595000291C9846FFF7BCF9071C0198291C7843BD
:1059600082464046FFF7F8F936040B04360C334301
:105970009A4509D91B197A1E9C4200D924E19A45FF
:1059800000D821E1023F1B195E4632041743380C50
:10599000BB46009E009F51463F0C32045B1A59469D
:1059A000BA46120C0F043F0C904651467A434F43BF
:1059B0004146414356467043CF19160CBE19B142B9
:1059C00002D980277F02C019310C12043604120C50
:1059D0004018B618834200D2C4E000D1BEE0191AC4
:1059E0004846861BB145BF417F42CF1BA74200D12D
:1059F00013E1291C381CFFF76BF901990290414310
:105A0000381C8946291CFFF7A7F9330C09041943F0
:105A100089450CD9029B0919013B8C4200D9FFE052
:105A2000894500D8FCE0029F0919023F02974F46C2
:105A3000CF1B381C291C0597FFF74AF9071C019852
:105A4000291C784381460598FFF786F93604090436
:105A5000360C0E43B14509D936197B1EB44200D924
:105A6000E0E0B14500D8DDE0023F3619029D49462D
:105A7000761A290439430B0457460A0C1B0C40467E
:105A80004546584355437B437A43EB18070CDB19D3
:105A90009D4202D980256D0252191D0C00041B0481
:105AA000000C52191B18964235D300D1FCE001239B
:105AB0001943049E994FF519002D00DCA1E0480719
:105AC00009D00F230B40042B05D00B1D8B428941BD
:105AD00049428B44191C5A46D20107D5904B5C466B
:105AE000049E80271C40FF00A346F5198D4B9D4264
:105AF0007ADD039C0122224000248B4DA146C1E6A1
:105B000080242403474627424CD13C432403240BE2
:105B1000009A854DB6E63619481EB4425ED9011C7E
:105B20009642C4D1009E9E42C1D1C2E7031C283BCD
:105B3000311C99408B46002188E6301C01F0B8F8F2
:105B4000203072E6283B211C99400022884691466D
:105B500051E6201C01F0ACF820303BE60021B145B5
:105B600000D33DE7009F5A46B944B945BF417F4243
:105B70003F19FB18013A9C421ED2984200D97EE0A0
:105B800000D1B5E0191A93462AE7894500D8ADE659
:105B90004846464642467708D3074608C0071E4394
:105BA0008146AAE65846204212D1044324032A1C07
:105BB000240B89465C4D65E6A342E3D1009F4F4527
:105BC000DBD9211A93460BE7171CDDE69B46BCE6A2
:105BD0003C432403240B009A534D53E6B24259D858
:105BE00000D18AE0011C62E75F46C9087B07039E7B
:105BF0000B437C026D0501229946240B6D0D32404A
:105C000040E64A4B049FDB1B382B10DD039C01222E
:105C1000224000240025A14634E60121494248E7FC
:105C2000029304E71F1C21E7019C039441E71F2B0B
:105C300040DC3F48049F0C1C3A1858469140DC4019
:105C4000904020430A1C511E8A41011C11435A46B0
:105C5000DA40131C480709D00F220A40042A05D055
:105C60000A1D8A42894149425B18111C1A0234D527
:105C7000039C0122224000240125A14602E6009F48
:105C800002214942B9448B44B94589414942091925
:105C9000CB18A4E6009D881E6900A942AD416D4263
:105CA0002C19361900913AE7002B00D033E7002475
:105CB000009437E71F4A049C5D46121BD5402A1CFE
:105CC000202B1FD01C4E5F46A3199F403B1C19433D
:105CD0004B1E994111430023BCE75A07C9080A43E8
:105CE000039F91465B0201221C0B3A400025C9E547
:105CF0004E45C4D89346002172E6009F9F42C9D307
:105D0000011C0FE70023E2E7802424035F463C43A5
:105D10002403240B019A8946034DB3E5FF030000D9
:105D2000FFFFFFFEFE070000FF07000002FCFFFF71
:105D30001E040000E2FBFFFF3E040000F0B55F46DA
:105D400056464D464446F0B40D1C041C8046E80FF0
:105D5000814618030F03000B3F0B83B084461B489A
:105D6000009749005E00DF0F490D9246760DBB4655
:105D700081420CD01548864210D00120B14215D086
:105D800003B03CBC90469946A246AB46F0BD009F8E
:105D900001202743F4D10D488642EED160460243EC
:105DA0000120002AECD10120B142E9D1009B6345DA
:105DB000E6D1D045E4D1D94506D00029E0D11C4335
:105DC000201C441EA041DBE70020D9E7FF070000AC
:105DD000F0B55F4656464D464446F0B4CD0FDE0F53
:105DE000AC461D032D0BB146374E0F034C00AB469E
:105DF0005D0080463F0B640D92466D0DB44232D07B
:105E0000314EB54235D0002C0ED13843414241418C
:105E1000081C002D0BD0002919D1CC452DD065468A
:105E200068420123184318E0002DF6D1281C59467A
:105E30000A4353425341002806D1002BEDD063465C
:105E400058420123184308E00020002B05D14A46A0
:105E5000504250414042012318433CBC9046994671
:105E6000A246AB46F0BD3E1C0643C9D002204042CC
:105E7000F3E75E461643C6D0F8E7AC4207DC0BDA20
:105E8000614648424841404201231843E5E76646DF
:105E9000704201231843E0E75F450AD80ED0002086
:105EA0005F45DAD2654668426841404201231843A3
:105EB000D3E76246504201231843CEE7D045F8D8D5
:105EC0000020D045EED3C8E7FF070000F0B55646E6
:105ED0004D4644465F46F0B40D1C83B0041C01904F
:105EE000E80F814618030F03000B3F0B844635482B
:105EF000009749005E00DF0F490D9246760DB846C7
:105F0000814234D02F48864236D0002918D0002E46
:105F10001FD1341C67463A4353425341002C1FD0D3
:105F20000020002B05D142465042504140420123FF
:105F3000184303B03CBC90469946A246AB46F0BD20
:105F40000098044360426041041C002EE2D0002807
:105F5000E9D1C14515D04F46784201231843E8E7FF
:105F6000002BF6D04B46584201231843E1E7009F2F
:105F700002202743DDD1C5E7674602201743D8D169
:105F8000C3E7B14204DD4A46504201231843D0E73B
:105F9000B14207DB00986045E4D80AD0009F00209A
:105FA0006745C6D24F4678427841404201231843A4
:105FB000BFE7019A5245D5D8019A00205245F1D346
:105FC000B7E7C046FF070000F0B5564644465F46B7
:105FD0004D46F0B41F1C0B031B0B9A464B0087B0B9
:105FE000041C80465B0DC80F161C02938146002BD3
:105FF00068D0694B0299994232D0802253465203AD
:106000001A43D200630F1A439246644AE00089188B
:1060100080460291002400253B031B0B9B46780021
:10602000FB0F321C400D039300D175E05A4B984290
:1060300069D08022594652030A43730FD2001A4393
:10604000564B9346C018F200002303994E46714008
:106050001C430F2C00D9A9E0514EA4003459A74687
:1060600053461C4300D087E00025AA46A8460824D2
:106070000225D1E74946022D6CD0032D00D117E24D
:10608000012D00D058E10D40EDB20024A9460023B7
:10609000A0460020002125030A0D1C052D0B12052A
:1060A000404B2A43134023435B004C465B08E20706
:1060B000191C4046114307B03CBC90469946A24685
:1060C000AB46F0BD5346234350D05346002B00D17E
:1060D00084E1504600F0ECFD031E272B00DD76E145
:1060E00028210D1A211C083B5246E9409A400D1CFC
:1060F0001543221C9A40AA4690462B4B00241B1A9B
:106100000293002588E75B461E430323002E9CD1A3
:10611000B3460022022398E75B46334321D058461A
:10612000002800D14EE100F0C3FD272800DD42E148
:1061300028210F1A021C311C083A5B46F940934093
:106140000F1C1F43331C9340BB461A1C164B181AD6
:1061500000237AE701230B4000249946A0460E4B0A
:1061600097E70027BB46002201236EE700210424A5
:106170008A46884601254FE70C2403254CE7002575
:106180008024A9462403A846034B82E7DA469046BA
:1061900003991D1C6FE7C046FF07000001FCFFFFCD
:1061A00060740000FFFF0F800DFCFFFF029F160CC4
:1061B000381804904046070C0004000C1204120C1E
:1061C000031C5343041C3D1C7443554398463B1C1D
:1061D00073436419A44644460293230C63449D42CE
:1061E00004D9029D802464022D1902951D0C03958B
:1061F00045462C041B04240C1C1905945C46230CF6
:10620000051C58432404240C8446381C6043654311
:106210005F438146CC44280C6044BB46814502D98B
:1062200080277F02BB442D04070C2D0C000440196D
:106230005546BC462F04E3448446280C3D0C2F1CD5
:106240005743B8462F1C77434243B94647463F0C55
:106250009144BA46D14446434A4502D9802252026B
:10626000B6184F463A0CB6183A0447463F043F0C5E
:10627000B8462F1C67435D4344435843651901905A
:10628000380C2D184244B846AC4204D901988023FA
:106290005B02C0180190039C029F201C6044C0193F
:1062A0006045A44147466442A4462B043C049946F9
:1062B000240C4C44A046D8448018C246E244904284
:1062C0009241574652429146F219E245BF417F4200
:1062D0004B46BC46D845BF41D4187F4263461F4356
:1062E0002D0C7F19B24292414C45AD4152426D4254
:1062F0001543019E7D19AB19E20D5B02059F134307
:1063000042023A439A46531E9A41C30D101C184349
:106310006402204380465046C0010DD54546012207
:106320005646049C6B082A401A43F30701341A436B
:10633000760804949046B246049E634FF319002BEE
:1063400061DD404640070BD00F2244462240042A1C
:1063500006D0424604324245804140428244904643
:106360005546ED0107D5594B5646049F80201E40E7
:10637000C000B2463B18564A934200DDEAE6444666
:106380005546E2086807104301226C025B050A408B
:106390008046240B5B0D91467BE6DA4690461D1C39
:1063A00069E680242403574627421CD13C4324033A
:1063B000240B484B6DE6031C283B311C99408B464F
:1063C0000022C3E6301C00F073FC2030ADE6283B11
:1063D000211C994000228A4690468EE6201C00F03F
:1063E00067FC203078E65846204207D104430399E1
:1063F0002403240B89469046364B4AE63C4324034B
:10640000240B344B45E6344B049E9B1B382B06DD96
:1064100001230B4000249946A046002339E61F2B98
:1064200025DC049C2D4D4646601952464446864064
:10643000DC4082405746301C2243DF40441EA041CE
:1064400002433B1C540709D00F201040042805D0FC
:10645000101D9042924152429B18021C1D021AD5F7
:1064600001230B4000249946A046012311E61C4855
:10647000049C5546001BC540281C202B16D0194EE5
:106480005746A21997403A1C43461A43531E9A4155
:1064900002430023D6E758075B02D2081C0B0123F6
:1064A0000B401043994680460023F2E50022EBE7BB
:1064B0008024240350460123044319402403240B61
:1064C0008946044BE5E5C046FF030000FFFFFFFEE1
:1064D000FE070000FF07000002FCFFFF1E04000093
:1064E000E2FBFFFF3E040000F8B55F465646444617
:1064F0004D46F0B40C034D00CF0F610A440F214309
:10650000C4001803DE0F8046B44646465800760A9B
:10651000530F3343D600C94A6D0DBA46400DB346FA
:10652000904200D1EBE062460126724094466745F6
:1065300000D1A1E02F1A002F00DC08E100283BD198
:106540005846184300D0E8E0600709D00F232340E5
:10655000042B05D0231DA342A441644209191C1C2D
:106560000A0200D479E0B54B6A1C9A4200D109E1D5
:10657000B34BE40819404807044349025205012778
:1065800050460B0B520D0740002000211B03201C1E
:106590001C0B0B0D1B05AB4D2343520552081D4030
:1065A00015436D006D08FF07291C39433CBC90461C
:1065B0009946A246AB46F8BDA0488542C4D080208B
:1065C00000040343382F00DDF0E01F2F00DD24E13D
:1065D0002020C01B1A1C5E468240FE403243944677
:1065E0005A468240101C421E9041FB4062460243C4
:1065F0001F1CA21A9442A4416442C91B091B141C0B
:106600000A02A1D549024F0A002F00D1C9E0381C67
:1066100000F04EFB021C083A1F2A00DDBCE02821D6
:10662000231C091A9740CB401F439440954200DD3C
:10663000AEE0551B691C1F2900DDDDE01F22551B44
:106640003B1C221CAB40CA40AC40651EAC4113430E
:10665000CF401C43391C002576E74807E4086A054B
:1066600001275646C908520D37400443734B9D42DB
:1066700049D009030B0B87E72A1A9446002A00DC4D
:106680009BE0002855D06D48854200D15CE7802012
:10669000000403436046382800DD09E11F2800DDBF
:1066A00050E162462020801A1E1C8640B1465E469C
:1066B000D6404A4632435E4686409046301C421ED3
:1066C0009041424602436046C3401219A242A4418F
:1066D000644259180919141C080200D434E7574BB6
:1066E00001359D4200D142E1554B6008194001231C
:1066F00023401C1C0443CB071C43490824E71E43CA
:1067000000D014E70FE70B1C234300D1CFE1802317
:106710001B030B431B031B0B36E7013F002F66D106
:106720005E46A21B9442A4416442C91A091B141C70
:1067300066E75846184300D106E701267642B4447E
:106740006046002800D0CAE05E463219BEE7002F3E
:106750007AD1681C4005400D012800DCE3E05A4670
:10676000A21A9442BF41C81A7F42C71B3E0200D4FE
:1067700092E05846041BA3459241591A52428F1A7F
:10678000E24641E7534601271F4000240023FBE671
:106790002B49AD1A3940D7E6271C283887400024FA
:1067A00044E7201C00F084FA203033E75A461A43AD
:1067B000531E9A41D2B200271BE7002A00D0E1E025
:1067C000681C4605760D012E00DC91E01B4DA842A9
:1067D00000D1F7E05E463219A242A4416442591842
:1067E0000919CC07520814434908051CACE61348A4
:1067F000854200D0E6E6A7E62B1C1F3B3E1CDE4090
:10680000331C202970D03F22551BAF403C43601EF3
:1068100084411C430021002596E6381C20381E1CAC
:10682000C640301C202F61D04022D71BBB405A46A7
:106830001A43531E9A4102430027DAE6FF0700007D
:10684000FFFF7FFFFFFF0F80002D38D0B94DA8421A
:1068500000D192E080252D047F422943382F00DDAE
:10686000AAE01F2F00DD2CE12025ED1B0E1CAE4001
:10687000B046261CFE404246AC401643651EAC4165
:106880003443F9405A46141BA34592415B1A5242C5
:10689000991A051CE246B3E6131C3B43141C002B5B
:1068A00000D0B1E600270022002500210024DDE60B
:1068B0005A461A43531E9A41D2B2002305E70D1CD3
:1068C00025435AD0FF43002F53D15A46141BA345EA
:1068D0009241591A5242891A051CE24690E695489F
:1068E000854200D0D6E62FE600278FE700239EE7FB
:1068F000081C2043002D00D0C3E0002800D1F6E0A2
:106900005846184300D11FE658460219A242A44136
:10691000644259180919141C0A0200D414E6864B63
:106920000125194010E6081C2043002D3AD100280B
:1069300000D089E05946194300D1BFE0191C5C46DC
:10694000E24601E6604620381A1CC2406646101C2A
:10695000202E00D1B0E04022921B93405A461A43A9
:10696000531E9A4102430023AFE6724D00272A1CB2
:106970009BE7704DA84200D070E7191C5C46051CCF
:10698000E246E1E5002D20D10D1C254375D0D5430D
:10699000002D6FD15C445C459241591852428918D0
:1069A000051C99E6002835D159461943DDD0191C3C
:1069B0005C46E2465F4DC7E50C43611E8C41E4B284
:1069C00000215FE7051C021C6FE75A4DA84254D016
:1069D0005542802216043143382D00DD81E01F2D01
:1069E00000DD91E02022561B0A1CB446B240261C52
:1069F000EE403243904662469440661EB4414246A1
:106A00001443E9405C445C459241CB1852429918CA
:106A1000051C61E6584618434CD04807E408044377
:106A20008020C9080003014208D0DD08054205D1D5
:106A30005946CA085C071443291CE246630FC90083
:106A40001943E4003B4D7FE55846184300D17BE5F0
:106A50005E46A71BBC429241C81A5242801A0602E7
:106A60004CD55846041BA3459241591A5242891AE3
:106A7000E24669E52F4A9042AED1191C5C46051CDE
:106A800062E5002836D05846184313D080254807C1
:106A9000E408C9082D0304432942CFD0D80828426E
:106AA000CCD15D46EA085C071443011CC6E700230D
:106AB000002469E51F4D47E500234FE7002700222A
:106AC000F3E63D1C203D0E1CEE40351C202F2DD042
:106AD0004026F71BB9400C43611E8C412C4300211A
:106AE000D0E60C43611E8C41E4B200218AE7191CF8
:106AF0005C4629E5191C5C460E4D25E5031C3B430D
:106B0000DCD0011C3C1C1FE52026764276190A1CAD
:106B1000F2409046202D0BD04026751BA9400C4317
:106B2000611E8C4145462C4300216BE70021D2E7D2
:106B30000021F4E7FF070000FFFF7FFF70B50B1C8B
:106B4000124C09030E0B5900021C490DDD0F0020E9
:106B5000A14211DD0E4881420FDC80204003064334
:106B60000C48401A1F280BDD0B4A521AD640321C23
:106B70005042002D00D1101C70BD084BE818FBE7F7
:106B8000074BC240C9188E403243F1E7FE030000B4
:106B90001D0400003304000013040000FFFFFF7F0A
:106BA000EDFBFFFF10B5041E28D000F081F8154A58
:106BB000121A0A2815DD0B38844024035205240BD1
:106BC000520D0023002000212403181C0B0D240B60
:106BD0001B0523430C4C12051C4014436400610840
:106BE00010BD031C1533211C99400B1C0B21081AE6
:106BF000C44024035205240B520DE3E70022002475
:106C00000023DFE71E040000FFFF0F8043001B0E80
:106C10005A1C4102D2B270B54C0AC50F012A17DDC9
:106C2000E02292006407090B9818002200231E0D31
:106C3000221C34050C431B494005400821400143F8
:106C400049004908ED070B1C2B43101C191C70BD93
:106C5000002B15D1002C1CD0201C00F029F80A288C
:106C60001ADC0B21091A231CCB40191C031C1533F9
:106C70009C400D4B0903181A4005090B400DD4E741
:106C8000002C03D06407090B0848CEE70748002111
:106C9000CBE700200021C8E7011C0B398C40211CE8
:106CA0000024E6E7FFFF0F8089030000FF070000D4
:106CB0001C2101231B04984201D3000C10391B0A2C
:106CC000984201D3000A08391B09984201D30009F0
:106CD000043902A2105C40187047C0460403020247
:106CE00001010101000000000000000008B5031CC4
:106CF000081C191C00F002F808BD000038B5051C7E
:106D000005480C1C131C002804D00220291C221C3E
:106D100000E000BF38BDC0460000000070B50E4B5B
:106D20000E4D0024ED1AAD101E1CAC4204D0A30081
:106D3000F35898470134F8E700F0BAF8084B094DCA
:106D40000024ED1AAD101E1CAC4204D0A300F35871
:106D500098470134F8E770BDFC000020FC000020DB
:106D6000FC0000201001002008B5034B011C18682E
:106D700000F016F808BDC046F800002010B500234A
:106D8000934203D0CC5CC4540133F9E710BD031C1B
:106D90008218934202D019700133FAE7704700005D
:106DA00070B50323CD1C9D430835061C0C2D01D264
:106DB0000C2501E0002D3FDB8D423DD3204B1C68AC
:106DC0001A1C211C002913D00868431B0DD40B2B5F
:106DD00002D90B60CC181EE08C4202D163681360AC
:106DE0001AE0486860600C1C16E00C1C4968E9E772
:106DF000144C2068002803D1301C00F025F82060D6
:106E0000301C291C00F020F8431C15D0C41C03239F
:106E10009C4384420AD12560201C0B300722231D8D
:106E20009043C31A0BD05A42E25008E0211A301C9A
:106E300000F00AF80130EED10C233360002070BD61
:106E4000CC0A0020C80A002038B5074C0023051CD6
:106E5000081C236000F012F8431C03D12368002BA8
:106E600000D02B6038BDC046D40A00200023C25C8D
:106E70000133002AFBD1581E70470000094A1368ED
:106E8000002B0CD018186946884202D81060181CD4
:106E90007047054B0C2201201A604042F8E7034B73
:106EA0001360EFE7D00A0020D40A0020D80A00209F
:106EB000F8B5C046F8BC08BC9E467047F8B5C04659
:106EC000F8BC08BC9E4670470000000000000000AF
:106ED000F9250000A12B0000B925000019270000AA
:106EE000DD260000BD250000A926000000000000EE
:106EF00054686520536F756E6420697320636F6DED
:106F0000696E672066726F6D20746865206C6566B7
:106F1000740054686520536F756E64206973206334
:106F20006F6D696E672066726F6D20746865207280
:106F300069676874005769746820612066726571BA
:106F400075656E6379206F66000D0A006E616E00D4
:106F5000696E66006F7666000000000000000000A9
:106F600015330000A12B0000573200001932000039
:106F700031320000CD330000F12F0000E12F00007E
:106F80001931000007300000DD2F00000000000074
:106F9000000000000B0000000200000004000000E0
:106FA000FF00FFFFFFFF0B00000000000A000000D1
:106FB0000200000004000000FF00FFFFFFFF0A00C6
:106FC000000000000E0000000800000004000000A7
:106FD000FF00FFFFFFFF0E0000000000090000009F
:106FE000040000001C000000FF0001000100090077
:106FF0000000000008000000040000001C00000069
:10700000FF00000000001000000000000F00000062
:10701000040000001C000000FF00010301030F003A
:107020000000000014000000050000002C0000001B
:10703000FF00020002000400000000001500000034
:10704000050000002C000000FF0003000300050005
:107050000000000006000000040000001C0000000A
:10706000FF00000100010600000000000700000012
:10707000040000001C000000FF00010101010700E6
:107080000000000012000000040000001C000000CE
:10709000FF000003000302000000000010000000D9
:1070A000040000001C000000FF00000200020000BD
:1070B0000000000013000000050000002C0000008C
:1070C000FF000300030003000000000011000000A7
:1070D000040000001C000000FF000102010201008A
:1070E000000000000200000001000000020000009B
:1070F0000000FFFFFFFF0200010000000800000089
:107100000100000018000000020000040004080054
:10711000010000000900000001000000180000004C
:107120000300010401040900000000000400000045
:1071300001000000000000000400FFFFFFFF04004A
:107140000000000005000000010000000000000039
:107150000500FFFFFFFF0500010000000200000026
:1071600001000000000000000A00FFFFFFFF020016
:1071700000000000160000000200000004000000F3
:10718000FF00FFFFFFFF06000000000017000000E7
:107190000200000004000000FF00FFFFFFFF0700E7
:1071A000000000000C0000000300000004000000CC
:1071B000FF00FFFFFFFF0C00010000000A000000BD
:1071C0000300000004000000FF00FFFFFFFF0A00B3
:1071D000010000000B00000003000000040000009C
:1071E000FF00FFFFFFFF0B00010000000300000095
:1071F0000B00000004000000FF00FFFFFFFFFF0086
:10720000000000001B0000000B0000000400000054
:10721000FF00FFFFFFFFFF00000000001C00000058
:107220000600000000000000FF00FFFFFFFFFF005E
:107230000000000018000000060000000000000030
:10724000FF00FFFFFFFFFF0000000000190000002B
:107250000600000000000000FF00FFFFFFFFFF002E
:107260000100000016000000030000000000000004
:10727000FF00FFFFFFFFFF000100000017000000FC
:107280000300000000000000FF00FFFFFFFFFF0001
:1072900000000000160000000200000000000000D6
:1072A000FF00FFFFFFFFFF000000000017000000CD
:1072B0000200000000000000FF00FFFFFFFFFF00D2
:1072C00000000000130000000200000000000000A9
:1072D000FF00FFFFFFFFFF000000000010000000A4
:1072E0000200000000000000FF00FFFFFFFFFF00A2
:1072F000000000001200000002000000000000007A
:10730000FF00FFFFFFFFFF00000000001100000072
:107310000200000000000000FF00FFFFFFFFFF0071
:10732000000000000D000000040000000C00000040
:10733000FF000100FFFF0D0000000000150000002D
:10734000050000000C000000FF000300FFFFFF002D
:107350000000000006000000040000000C00000017
:10736000FF000001FFFFFF00000000000700000019
:10737000040000000C000000FF000101FFFFFF00FF
:1073800000000000030000000100000002000000F7
:10739000FF00FFFFFFFFFF000000000002000000F1
:1073A00001000000020000001400FFFFFFFF0200C8
:1073B0000000000000000000453B0000293A0000EA
:1073C000713900000000000041726475696E6F2021
:1073D0004C4C43000403090412010002EF02014077
:1073E00041234D8000010102030141726475696E01
:1073F0006F205A65726F000000000000000000005E
:10740000114B00003D4B00000D4B0000314B0000C4
:10741000254B0000754B0000594B00000000000098
:10742000DC58000078580000C0580000A657000043
:10743000C0580000B4580000C0580000A657000013
:107440007858000078580000B4580000A657000093
:107450009C5700009C5700009C570000005B0000F8
:10746000AC6100009A6300009A6300008C61000028
:1074700076600000766000007E6100008C61000094
:10748000766000007E610000766000008C61000084
:10749000746000007460000074600000A26300006B
:0874A0004300000000000000A1
:1074A80000000000060000000700000040420F0036
:1074B8000A0000000A00000000000000830000002D
:1074C8000200000082000000000000000000000030
:1074D80000000000000000000000000000000000A4
:1074E800FFFFFFFF00C2010000000800FFFFFFFFD1
:1074F800080B000202020000090400000102020059
:1075080000052400100104240206052406000105D4
:10751800240101010705810310001009040100027C
:107528000A00000007050202400000070583024028
:1075380000000000FFFFFFFF000000000000000047
:107548000000000000000000000000000000000033
:107558000000000000000000A0740000000000000F
:107568000000000000000000000000000000000013
:107578000000000000000000000000000000000003
:1075880000000000000000000000000000000000F3
:10759800000000000000000098000020DD2000002E
:1075A800DD28000025370000A1470000354C000009
:1075B800B5200000000000000000000000000000EE
:0400000300002E6566
:00000001FF
